:020000040800F2
:1000000008060020D50000086B1A0008691A0008CD
:1000100000000000000000000000000000000000E0
:10002000000000000000000000000000B11C0008FB
:1000300000000000000000006D1A0008DD1C000830
:10004000E7000008E7000008E7000008E7000008F4
:10005000E7000008E7000008E7000008E7000008E4
:1000600000000000E7000008E700000800000000B2
:10007000E7000008E7000008E700000800000000B3
:10008000E7000008E700000800000000E7000008A3
:1000900000000000E7000008E7000008E700000893
:1000A00000000000E7000008E70000087D1F0008CE
:1000B000E700000800000000E70000080000000062
:1000C0000348854600F0C0FB004800476D08000863
:1000D000080600200448804704480047FEE7FEE782
:1000E000FEE7FEE7FEE7FEE7E51C0008C1000008AA
:1000F00030B50B46014600202022012409E00D46C0
:10010000D5409D4205D31D469540491B2546954047
:1001100040191546521E002DF1DC30BDD2B201E06F
:100120000270401C491EFBD270470022F6E710B552
:1001300013460A4604461946FFF7F0FF204610BD55
:10014000024670B54A40D30FDB0740002DD04A006D
:100150002AD0010E140E000212020919400A520A96
:100160008418E50104465443000A120A2E04504341
:10017000A4194219200CC543AA18120C0125AD037D
:10018000521C521912047F39240400D0521C10430F
:1001900001D44000491EC2B20C06C0092018401C00
:1001A0004008802A02D003E0002070BD40084000D3
:1001B000002900DA0020184370BD70B502464A409D
:1001C000D50F40004A00ED0740085208002814D01F
:1001D000002A12D0C40DD30D41020120C0055202E5
:1001E000490A520AE41A091812187D34914201D3BF
:1001F000641C00E04900002C01DA002070BD0023DF
:10020000914201D3891A0343400849000028F7D1DD
:1002100000290AD0914202D10121C90705E091428B
:1002200001D2012101E00121C943E005C0184019B4
:1002300000F028FA70BD0000F0B5074608465840A7
:1002400087B0C00F049048000E4659004008490886
:10025000BC1A884105D2384631461E4617460B4621
:1002600002465800400810434CD0300D0390400522
:100270005900400D490D0590401A0290402872DA4D
:1002800018030121000B090508430190049800920E
:10029000002805D001995242002088410092019027
:1002A000029840210A1A0199009800F0B7F9054612
:1002B0000C466B4607CB00F0D2F9C0197141039A86
:1002C0000E0D0023D71756401A467A40164344D0E5
:1002D000049A002A2DD0029A012A039A15DC1205ED
:1002E000C01A914101263605001C7141D20F059EAE
:1002F000D2070093019202962A46234600F010FA94
:1003000007B0F0BD38463146FAE71605224A0F46D7
:10031000B218C01AB74101210905001C4F4100184D
:100320007F41114618187941E20F10436D1964415D
:1003300013E0E2076D0815436408C2071443039AEB
:1003400001261205C01A91413605001C7141CE07E5
:10035000400830434908C01851412A46234600F05E
:10036000D2F9CDE7FFE7049801224000C117121A25
:1003700000238B4104983146C417381AA141EEE797
:1003800030B40124E407634030BC55E730B40124A5
:10039000E407614030BC4FE70000E0FFF0B51FB458
:1003A00088B00B990998002448400999C00F49006A
:1003B00049080991C0070B990090490049080B9121
:1003C00009990898A64608431CD00B990A98084337
:1003D00018D0099801244000420D4800410D0998A9
:1003E00024050003000B204309900B980003000B29
:1003F00020430B9050181C494018002201901446CD
:10040000104605E0002001460DB0F0BD032801DADA
:10041000034600E003239C46C11A0AAE0AE05F00CF
:1004200008ADED5B4F00F75B7D430027AA187C41C8
:10043000491C5B1E6145F2DD410004AB5A522104A8
:10044000120C0A43240C401C0828DFDB01980290A0
:100450000099704601910090059B049A07990698AF
:1004600000F05EF9D0E700000DFCFFFFF0B50C4690
:100470005C4085B0E40FE40703944C000026640858
:1004800059009446490802460296224321D062460A
:100490000A431ED06200570D4A000E032303550D78
:1004A000012402462C492405781B1B0B360B4018EF
:1004B00023432643614600901C46501AB44103D39F
:1004C0000098401C009002E0921800985B410028C0
:1004D00003DA0020014605B0F0BD00200121090526
:1004E0000746864611E064461D46141BB54106D3F7
:1004F0006546521BB341744607430C43A646CD07DD
:1005000040084908284392185B4105460D43EAD14B
:100510001046184313D060461946504071400843B6
:1005200006D06046101AB34106D20122002306E02D
:1005300000220123DB0702E00122D243531000987E
:1005400074460105381C6141029C039D00196941F4
:1005500000F0D9F8BFE70000FD0300000122D20738
:10056000002800DB101A002900DB511A814201D259
:1005700001207047002070470122D207002800DBCD
:10058000101A002900DB511A814201D30120704763
:1005900000207047C217C10F504010B54018CA075D
:1005A0009623002100F076F810BD000070B5CD0F45
:1005B0004A0009030123090B1B0519430B4BED07E7
:1005C0000024520D9A4201DA002070BD074B3433EB
:1005D0009A4203DC9A1A00F031F802E004495118FB
:1005E00088402C43F1D0404270BD0000FF03000062
:1005F000CDFBFFFFC20FD207400040080BD0C10D5A
:100600000723DB01C91840020905400A1143C2084B
:1006100040071143704700200146704710B5202A5B
:1006200004DB0146203A9140002010BD9140202378
:100630009C1A0346E3401943904010BD10B5202A90
:1006400004DB0846203AD040002110BD0B46D340C1
:10065000D0402024A21A91400843194610BD10B57D
:10066000202A06DBCB170846203A1041C1170B435E
:1006700006E00B461341D0402024A21A91400843C3
:10068000194610BD002904DA401C490001D1400878
:100690004000704770B40024050C05D110240004FC
:1006A00002D1002921D01124050E01D10002083405
:1006B000050F01D10001241D850F01D18000A41C6C
:1006C000002801DB4000641C002908D020252E1BD7
:1006D0000D46F540A14000D0012129430843010601
:1006E0001B1B000ADB1D02D5002070BC7047DB0518
:1006F000181880180029F8DA401C4900F5D170BCA0
:1007000040084000704710B5002B08DA0024401C58
:10071000614192185B411A4301D14008400010BD6D
:10072000F0B51FB482B005460C0003D0084601F0B6
:1007300043FD02E001F040FD2030024600902146DA
:100740002846FFF76BFF049B059A04460F461843A3
:100750001143084314D0184610431BD00098402181
:100760000A1A18460599FFF769FF05460E46009AD2
:1007700005990498FFF752FF084305D0012004E0D3
:100780002046394607B0F0BD0020C11705430E438F
:100790002C43374300990E986305401A7905E40A03
:1007A00000220C43FD0A0A3002D500200146E9E789
:1007B0000105101969410C9C0D9D00196941FFF755
:1007C000A2FFDFE7F0B55F0085B07F0DCD0F039787
:1007D0004E0001273F051B0309031B0BED07090B07
:1007E0003B43760D394397189C46029700245B41A2
:1007F000039F01957F1E00949E46039713E0029F7E
:100800007346C01B994106D50127FF077D400F465F
:1008100000214042B9416346171A8B41EFD3761E3F
:100820000018039F4941BE42F5DA02460A4307D049
:100830000022134602960195FFF772FF05B0F0BD46
:1008400020460199FAE70000064C0125064E05E016
:10085000E36807CC2B430C3C98471034B442F7D3E1
:10086000FFF732FC682300088823000880B50020C9
:1008700007490122D306C3580B50001DC028F8D1E8
:1008800050070449086001F07BFC002080BDC04691
:100890000000002008ED00E0F0B591B006AD2C217D
:1008A0002846FFF742FC00260C960A2006900E967A
:1008B0000C2008900796109601240F9460040A906B
:1008C000099605960496039602961F4800681F49EC
:1008D0000140E00308180D9027020B97284600F00E
:1008E000F3FA0596049603960720029002A8214683
:1008F00000F0C6F916484168394341604168394003
:1009000001910199016802221143016001681140BF
:100910000191019901682143016001682140019121
:1009200001992103C2680A43C260C2680A40019269
:100930000199210782680A4382608068084001901B
:10094000019811B0F0BDC046100FFF1FFF1F00003F
:1009500034100240F0B581B001F094F87D20C4005D
:1009600025270025174E1348134901607F20C00535
:10097000124908602846FFF70DFE1149086001F092
:100980005DF801F0A9FB304601F058FB204600F06D
:1009900053F801F099FB304601F050FB204600F07F
:1009A0004BF809A001F086FC0A357F1EDBD101B0AF
:1009B000F0BDC046D00000200AD7A33CCC000020E8
:1009C000C8000020E000002048656C6C6F20576F65
:1009D000726C64210D000000FEE7000070B521215B
:1009E000415C02290FD1026811680E2399431160FE
:1009F000136801218B4313600E4B1C461834A2422E
:100A000006D00C0205E0042181630124204670BD5C
:100A10001024054620351E1DB2420A4600D022464B
:100A20001A6000242C706970416B002900D088473F
:100A3000204670BD04000240B0B5044600F0C4F882
:100A40000546601C02D07E480068041900F0BCF81E
:100A5000401BA042FAD3B0BDF0B58AB005900B6838
:100A6000002B00D1A5E00D4653480121059A824292
:100A70000291084600D002200521090700248A427D
:100A80000994009400D00090099804460890029AB6
:100A900007950EE0314379602B681846D0400999DC
:100AA000091D0991A41C089908310891521C0028BD
:100AB0007FD0501E029F069087403B40ECD00492AE
:100AC00003936868102101431229059E10D11C2050
:100AD000099908400F218140069BDD08AD0075197A
:100AE0002B6A8B4307990969814019432962079D45
:100AF00003221146A14033688B4368680546019282
:100B00001540A5401D433560C943122814D8012360
:100B100083402C4D2B420FD0059EB3680B40079DA0
:100B2000ED68A5401D43B560C306DB0F069DAB40D5
:100B30007568BD431D437560059EF3680B40079DB6
:100B4000A968A1401943F160C000039E049AA3D58F
:100B50001820089908400F218140069B019A934371
:100B6000164FFB181D6E8D43009981402943079D48
:100B70001966134801686868C30301D5314300E072
:100B8000B143049A0E4B19605968830301D5314370
:100B900000E0B1430A4B59603968C30201D53143C3
:100BA00000E0B14339607968800200D572E7B14353
:100BB00071E70AB0F0BDC0460004005000180240C2
:100BC0008018024006000600054800687047C046CD
:100BD0001B48006802490A68101808607047C04640
:100BE0000402002010B50024204600F009F8002877
:100BF00002D00124204610BD00F024F8204610BD8C
:100C0000B0B505460E4801680124002916D07D20A4
:100C1000C000FFF76DFA01467D480068FFF768FAEB
:100C200000F0CEFC032D09D8002807D10024E043B2
:100C30002946224600F020F8724805602046B0BDE3
:100C4000D800002082B00948416801221143416068
:100C50004168114001910199110702680A4302603D
:100C6000006808400090009802B070473C100240B5
:100C700080B501F049FA80BD80B501F051FA80BD20
:100C8000F0B583B000284CD00D4602905A48006859
:100C9000012101910840A84214D257490868012651
:100CA000B04328430860554CFFF78EFF0746524873
:100CB00000683040A84205D0FFF786FFC01BA04265
:100CC000F5D995E0029C206881077B4B0DD5410743
:100CD00004D5072109031A680A431A600F21090283
:100CE0001A688A43A16811431960C0071CD14248A1
:100CF000006801273840A84230D93F490868B84306
:100D0000284308603D4CFFF75FFF06463A480068FD
:100D10003840A84222D0FFF757FF801BA042F5D9E8
:100D200066E0012003B0F0BD6668042E44D8B1002F
:100D300001A251588F46C0464D0D00089D0D000878
:100D4000AB0D0008B90D0008BD0D000819460839A3
:100D500009684905019835D403B0F0BD029A1078AE
:100D6000400707D507200003534B19688143D0681B
:100D70000843186000F05EF84F49096889093C2271
:100D80000A401F4989581F220A40D0402049086064
:100D90001C480068FFF734FF03B0F0BD194608395E
:100DA000096889030198D7D50CE019460839096804
:100DB00089010198D0D505E0996D00E0596D89074A
:100DC0000198C9D5196807229143314319600B4F27
:100DD000FFF7FAFE0646384800683821014060688F
:100DE000C000814283D0FFF7EFFE801BB842F2D9EA
:100DF000032003B0F0BDC04600200240881300006D
:100E0000E8220008DC000020014800687047C04666
:100E1000D400002080B5FFF7F7FF27490968890A49
:100E20001C220A40024989581F220A40D04080BD36
:100E300028230008204801688906490F06D0026867
:100E400038210A40082A11D11C487047021F08386F
:100E5000016810680004400F042800D900208000B9
:100E6000184A10588904490FC840704702680A4060
:100E7000102A0ED14168C90712D1001F0068000472
:100E8000400F042800D9002080000E490858400077
:100E9000704702680A40202A04D10120C00370472D
:100EA0000748704700680840182801D000207047A4
:100EB0007D2000027047C0460810024000127A00F0
:100EC0000024F400D4220008F0B585B001270028E2
:100ED00000D1C5E1029703900078C007F54B1FD100
:100EE00003980078800745D403980078000771D4F0
:100EF00003980078400700D49CE1EE4A90683821BE
:100F00000140202900D0B6E0D06D800700D48EE1EA
:100F10000398C068002800D089E10020012787E1FC
:100F20009868382202401146103948424841D96831
:100F3000082A5FD001405DD103984668002E08D092
:100F40008068002800D1DAE019690C22914301433E
:100F5000196101273804EC4B864208D01968052234
:100F60001204964200D0DEE0BA04114319601968F9
:100F70000143DFE0E4498868C96801273940382621
:100F8000064010207040411848424841002E3CD095
:100F900000283AD1DC4E3068039A5169002900D10B
:100FA00092E00721C9028843916901433160380208
:100FB000316801433160BC02FFF706FE0546306828
:100FC000204200D093E0FFF7FFFD401B0228F6D936
:100FD000032745E1CC4A906838210140182933D1D4
:100FE000106E800784D50398006A002800D07FE740
:100FF000029F35E11868800300D471E703984068C8
:10100000002800D06CE7029F2AE1BF480068400535
:10101000039B03D55869002800D121E1BC02BA4ADC
:101020005068BA490140D86908435060FFF7CCFDC9
:101030000546B5480068204226D1FFF7C5FD401B94
:101040000228F6D903270BE1106E0399096A0029DB
:1010500057D0012108431066FFF7B6FD0546AA48A0
:10106000006E800700D543E7FFF7AEFD401B032766
:101070000228F4D9F4E001263107D06BC0000091BA
:1010800076D5002001907BE0002E15D10720C0020C
:101090009D4C216881430398806908432060FFF7D5
:1010A000C9FEA16889093C220A40994989581F2232
:1010B0000A40D0409749086097480068FFF7A0FDB4
:1010C000002800D0CCE00FE7390288433060BC0232
:1010D000FFF77AFD05468C480068204200D103E7FF
:1010E000FFF772FD401B03270228F4D9B8E07068AF
:1010F000864901400398C06908437060F4E6029F86
:10110000AEE0012188431066FFF75EFD05467E488C
:10111000006E800700D4EBE6FFF756FD401B032767
:101120000228F4D99CE07948401E01401960B804B7
:10113000196881431960FFF747FD05467C04002EBE
:1011400011D0714E3068204200D0C9E6FFF73CFD57
:10115000401B6428F6D9032782E0FFF735FD401BCA
:10116000032764287CD8684800682042F5D1B7E698
:10117000D06B0843D063D06B08400490049801966C
:10118000664F3868C0051BD50398C768002F0BD081
:1011900000698103890F00D17004032109045A4BAF
:1011A0001A698A4302431A61574A012F05D0D06D4C
:1011B000052F15D104210843D065D06D304314E0CC
:1011C0003402386820433860FFF7FEFC0546386873
:1011D0002042D9D1FFF7F8FC401B0228F7D914E0D0
:1011E000B043D065D06D04218843D0654C4EFFF7E5
:1011F000EBFC0546444C002F0FD0E06D80070FD468
:10120000FFF7E2FC401BB042F7D9002003270FE0B4
:10121000FFF7DAFC401BB042F7D8E06D8007F7D447
:101220000198002803D0E06B00998843E063012017
:10123000002815D00398406A002810D0324B9968D6
:1012400038220A40102A0ED10128029F08D02E48C9
:10125000C068012738400399896A884200D1002775
:10126000F8B205B0F0BD012421061A688A431A605D
:10127000660602280DD1FFF7A7FC05462248006844
:10128000304219D0FFF7A0FC401B03270228F5D9F4
:10129000E6E7D868A043D860FFF796FC04461A48F2
:1012A00000683042DBD0FFF78FFC001B03270228C9
:1012B000F5D9D5E7001002400398806A012821D0B3
:1012C000002805D100F0D4FB164988422746C7D331
:1012D0000D4BD86801218843039A926A0243DA6071
:1012E0000806196801431960FFF76EFC04460648BA
:1012F00000683042B3D1FFF767FC001B03270228C8
:10130000F5D9ADE72746ABE7001002400000FFFF2C
:10131000E8220008D4000020DC000020007000401B
:10132000881300000024F400B0B5002811D0044652
:1013300005464835022068702068016840229143C4
:101340000160204600F046F80020E06428706870D4
:10135000B0BD0120B0BD0000F0B581B0002836D08E
:101360000446054648356878002804D100202870D6
:10137000204600F031F80220687021680868402299
:101380009043086001225002A36918406668A7686C
:10139000374326693E43676937430743E06938436B
:1013A000266A06430E60E668844F0020BE42174658
:1013B00000D307463F0337431B0C04261E403E4321
:1013C000636A33434B60E0646A7001B0F0BD012092
:1013D00001B0F0BD7047000010B586B000681C4930
:1013E000884201D006B010BD1A490A6802200243A3
:1013F0000A600A6802400192019A0B6801221343B5
:101400000B600B6813400193019BCB681343CB60C7
:10141000CB6813400193019B1303CC681C43CC6041
:10142000CC681C400194019B4B6813434B60496896
:1014300011400191019900210591049002908020B2
:1014400001900520000701A9FFF706FB06B010BDBB
:101450000030014034100240F0B589B00446482005
:10146000205C012802D1022009B0F0BD1546079189
:1014700006932746483701263E70FFF7A5FB0590E7
:101480007878012843D107990029304600D190E0AF
:10149000002D304600D18CE004962068026840237D
:1014A00003939A4302600A46032101917970002157
:1014B000E164E585A585A262A1862163A163E1635C
:1014C0000291E1860122D303A168994203D19103DD
:1014D00002680A43026001684906069E03D4016857
:1014E000039A1143016061684A424A416B1E5942A6
:1014F00059411143E268314B9A420AD30029059DB4
:1015000010D0A16A0988C1600798801C06E00220FB
:101510004FE00029059D21D0079917E0A062E08DDA
:10152000401EE085E08D00282BD020688168890767
:1015300007D4FFF749FB711CF4D0401BB042F1D334
:101540001AE0A16A0A88C260881CE7E7097801737B
:10155000A06A401CA062E08D401EE085E08D00285E
:101560000FD020688168890709D4FFF72DFB711C13
:10157000F4D0401BB042F1D3049E019819E0A16A57
:10158000E4E7204631462A4600F0B2FA002801D0AE
:101590002020E064A0680028049E07D102980890EB
:1015A0002068C1680891806808900898E06C411E26
:1015B0008841002139707E7009B0F0BD010700003C
:1015C00080B500F077FB80BD70470000F0B581B0BA
:1015D000044602681168D0682F230B405269202B03
:1015E00007D12023034004D0204600F0CDFB01B0FA
:1015F000F0BD0B0750D001252A402E023746203778
:101600000740D71948D0CF0704D0064002D0A66CB7
:101610002E43A6644D0705D5002A03D0A56C0226EB
:101620002E43A6648D0705D5002A03D0A56C042699
:101630002E43A664002B05D5002A03D0A26C0823F4
:101640001343A364A26C002A2ED00840800602D562
:10165000204600F099FB2068406940252840A16C95
:1016600008220A4010182BD0204600F072FB206898
:10167000416949061FD54169A9434161206C002891
:1016800019D013494163FFF7A9F900280CD0206C49
:10169000416B884701B0F0BD0840010606D4400602
:1016A00002D5204600F063FB01B0F0BD204600F0FB
:1016B00003FC01B0F0BD2046FFF786FF01B0F0BD8E
:1016C0002046FFF781FF0020A06401B0F0BDC046B6
:1016D000431D0008F0B581B000282ED00446054611
:1016E00044356878002804D100202870204600F096
:1016F00027F82420687001277E032068C168B14361
:10170000C160204600F074FB206A002802D0204609
:1017100000F000FBF80221680A6982430A61486907
:10172000082290434861C8683043C8600020A06424
:1017300020216970A97001B0F0BD012001B0F0BD99
:1017400070477047F0B585B00E4605464520285CC9
:101750000221202831D10120002E61D01746002A15
:101760005ED001221403A868A04204D12869002891
:1017700001D1F00756D102942C4644342078012838
:1017800008464DD0039321460024AC640A70212002
:1017900001914870FFF718FA04906F862F86A868A9
:1017A000029988420CD1286900283446039B00D056
:1017B0000024002805D1064603E0084605B0F0BD28
:1017C000039B688E00281CD0184F0AE030782968E7
:1017D0004860761C039B688E401E6886688E0028D1
:1017E0000FD080212846049A00F092FB00280FD1E8
:1017F000002EEBD12088384029684860A41C0026C0
:10180000E8E740212846049A00F082FB002802D035
:10181000032005B0F0BD0020019A10702021517006
:1018200005B0F0BD104605B0F0BDC046FF01000098
:1018300070470000F0B58DB00891099074480068B9
:1018400074490968FEF77CFCFEF7D4FE04460E4698
:10185000714800687149FEF7B0FCFEF7CBFE012726
:10186000BB0700252A4600F0DBFC6D4B2A46FEF73D
:10187000E3FC02460B46F80783436A492846FEF715
:101880007FFD22463346FEF789FD049005916048AE
:101890000068FEF7AFFE0794224606963346FEF731
:1018A0006FFD04460B915C48076838460C95294645
:1018B000FEF754FE00280FD158493846FEF74EFE79
:1018C000002809D0079E069B049803900598029073
:1018D0000C980190089F6BE050493846FEF73EFE99
:1018E000002811D100200C904F493846FEF736FEF3
:1018F000002809D0049E059B079803900698029043
:101900000C980190089F53E047493846FEF726FEA1
:10191000002811D1002645493846FEF71FFE002851
:101920000AD03346079803900698029004980C90CA
:1019300005980190089F3BE03C493846FEF70EFEB3
:10194000002811D100263A493846FEF707FE002844
:101950000AD03346049803900598029007980C909B
:1019600006980190089F23E032493846FEF7F6FDBD
:101970000546401E85412E493846FEF7FDFD411EB5
:1019800088412840069A1146059B00D119460191CD
:10199000002807990C91049E00D10C960028089FFE
:1019A00000D11346002800D10E460020039002907B
:1019B0000A9420460B9D29463246FEF73DFC002442
:1019C0001D4B2246FEF7EAFCFEF7F0FD03267E43A0
:1019D000099FB8550A9829460C9A019BFEF72CFCE2
:1019E0002246154BFEF7DAFCFEF7E0FDBD19A870A4
:1019F0000A980B99039A029BFEF71EFC22460E4B97
:101A0000FEF7CCFCFEF7D2FD68700DB0F0BDC0460D
:101A1000D0000020CC000020C80000200000704250
:101A20000000F0BF0000F03F0000F042000034432F
:101A3000000070430000964300E06F4010B5174C63
:101A400000212046FFF7F6FE3E20C04321182278F1
:101A50004223CA5462784323CA54A2784423CA5406
:101A6000C01CF3D110BDC046FEE7704770470000B0
:101A7000A4480068C00A1C21014001484058704732
:101A80004823000810B5054842242146FEF74DFBC7
:101A900003482146FEF749FB10BDC046E000002088
:101AA0002401002010B510480021104A01620723CC
:101AB0001B024124A40014C0FC3401604360816017
:101AC000C160046141610838FFF72EFC002801D095
:101AD000FEF782FF0448FFF73FFC002801D0FEF725
:101AE0007BFFFFF7AFF810BD680100200030014018
:101AF000F0B581B016460F4605460324E1023A468A
:101B0000334600F01BF800280FD1284639463246EC
:101B100000F07CF8002808D10320410228463A460C
:101B2000334600F00BF8002806D0E86C2021014372
:101B3000E964204601B0F0BD0024FAE7F0B589B0B1
:101B40001F4614460E46029007A800250570FFF7B1
:101B50003BF8381A06940419FFF736F8029A0490F5
:101B60005248006823214143080D059460430890C2
:101B7000106803908068304228D0104648300190A9
:101B800004E025461068806830421DD003277802A3
:101B9000864204D10398007B07A90870079806982D
:101BA000401CEFD02C461546FFF70EF80499401A5A
:101BB000059988420CD208980899491E0891002876
:101BC0002A46DED10590DCE72F461CE02F461AE0BE
:101BD00028684168E02291434160412189006A6898
:101BE0008A420BD1A9680122D303994202D0920202
:101BF000914203D101684022914301600020019984
:101C0000087001204870384609B0F0BDF0B583B0C7
:101C100016460D460446FEF7D7FF301A4719FEF761
:101C2000D3FF0646214800684001000D784302902A
:101C30002068806800210191000602D4019803B059
:101C4000F0BD20464830009003E020688068000620
:101C5000F4D5681CF9D0FEF7B7FF801BB84207D255
:101C600002980299491E02910028EED10746ECE73E
:101C700020684168E0229143416041218900626807
:101C80008A420BD1A1680122D303994202D0920269
:101C9000914203D1016840229143016000200099E4
:101CA000087001204870032003B0F0BDD40000206C
:101CB00070470000B0B5401E010E01D00120B0BD3C
:101CC000054D68600024E043032100F029FAAC6070
:101CD000072028602046B0BD10E000E080B5FEF788
:101CE00077FF80BD07480168074A0A40074909682D
:101CF0001143012253030B430360D00604490860DB
:101D00007047C046041002400000FFFF040FFF1F91
:101D100008ED00E010B52021415C490610D50121F5
:101D20000A0301684B699343446A23434B6194421D
:101D300006D1032252034B699343806A18434861DA
:101D400010BD80B5406A002141874186FFF73CFC09
:101D500080BD092149010268D3688B43D360516972
:101D6000012399435161462120224254704780B596
:101D70000168CA6840239A43CA6045212022425420
:101D8000FFF756FD80BD000070B54621415C222959
:101D90001BD101210A038368934202D10269002A00
:101DA00006D0426B531C436303685B68137007E003
:101DB000426B931C436303685B68544C1C40148063
:101DC000428F521E4287120400D070BD0246463236
:101DD0000368DC682025AC43DC600C02DE68A643A7
:101DE000DE605C698C435C611570FFF7AAFC70BD16
:101DF000F0B581B0044601214A03006803699343AA
:101E0000E2681A4302612269C3682A4D1D40A36833
:101E1000134362691A432A43C260CE024169B14347
:101E2000E769394341610321090242698A43A16993
:101E300011434161FEF7EEFF01461920484363213B
:101E4000CD436168B74219D14900FEF751F9064602
:101E500064273946FEF74CF900904543A819C000A5
:101E600032303946FEF744F90721014040001F2275
:101E70001201024000980001101816E08900FEF7D8
:101E800037F9064664273946FEF732F90090454394
:101E9000A819000132303946FEF72AF90F21014016
:101EA000F022024000980001101801432068816070
:101EB00001B0F0BDF3E9FFFF4521415C21291AD1B2
:101EC0000121090382688A4202D10169002905D0F3
:101ED0000168C26A13784B60511C06E0C16A0A8827
:101EE0000A4B134002685360891CC162418E491E2F
:101EF0004186090400D070470068C1688022914380
:101F0000C160C16840220A43C2607047FF010000FF
:101F1000F0B583B00C460546006800680840002113
:101F20000291A04202D1029803B0F0BD1E461746AE
:101F300028464430019004E0286800682040A04210
:101F4000F1D0701CF8D0002E04D0FEF73DFEC01B6F
:101F5000B042F1D90D2040012968CA688243CA60A5
:101F600048690122904348612020019A5070002165
:101F700011709070032003B0F0BD000080B57F4861
:101F800000680168890602D54168C9B241607B4892
:101F9000FFF71CFB80BDC046F0B587B00127B80332
:101FA0002449CA680243CA60CA6802400292029881
:101FB000086838430860086838400290029806971D
:101FC00003200190059004970224039404200290BA
:101FD0000520050702AE28463146FEF73DFD06976F
:101FE00001980590049703940820029028463146F2
:101FF000FEF732FD614E0025E12040020E490C2221
:1020000031607060B560F56035617261B561304610
:10201000FFF760FB3068C16820220A43C2601B26BC
:10202000304601992A46FEF727FE3046FEF720FE8D
:1020300007B0F0BD3410024000380140F0B5FFB0E9
:1020400086B00090002701AD09E02120020101A91E
:102050002B482C4BFFF700FA7F1C162F31D00320A2
:10206000784300990A18531C082604E0CC432C70CE
:102070006D1C002E08D0761E1C78F4403F200721EE
:10208000E407F3D1C443F2E7082304E0CC432C7007
:102090006D1C002B06D05B1E1478DC40E407F5D1E4
:1020A000C443F4E7921C082304E0CC432C706D1C5D
:1020B000002BCAD05B1E1478DC40E407F5D1C44382
:1020C000F4E77FB006B0F0BD80B502484221FEF7CC
:1020D0002CF880BDE0000020B0B5FFB0B1B0AF205B
:1020E000840001AD28462146FEF71FF80448054B41
:1020F00029462246FFF7B0F97FB031B0B0BDC046E7
:1021000068010020FFFF0000002805D41F210840BF
:1021100001218140014801607047C04600E100E0B4
:10212000002805D40322034693430C4A9A1806E07C
:102130000F220240083A03239A43074BD218800724
:10214000C00E8901C9B28140FF23834010689843C3
:10215000084310607047C0461CED00E000E400E05A
:1021600080B582B001907D20C300044801A90122FE
:10217000FFF7E8FA019802B080BDC046B801002020
:10218000FEF730FDFEF788FBFFF706FFFFF78AFC3E
:1021900005A4FEF7DFFB204600F08CF87D20C00090
:1021A000FEF74AFCF5E7C04648656C6C6F20576F38
:1021B000726C64210D0000002021020C01D010215E
:1021C0001046020A01D010460839020901D0104613
:1021D000091F820801D01046891E420801D0881EBE
:1021E0007047081A7047002210B513461046114672
:1021F000FEF73CF910BD02E008C8121F08C1002A12
:10220000FAD170477047002001E001C1121F002A77
:10221000FBD170470149086070470000C4000020EE
:1022200070B514461D460E46002801D0012100E07D
:10223000002131434A001E4952088A1AD20F15D193
:10224000002C01D0012200E000222A435200520853
:10225000891AC90F0AD1012271005205D14201D158
:1022600000281FD0690001D1002C1BD02246314626
:10227000FEF7A8FA0246080DC043400510D0F00F43
:10228000CB0FC007DB0798420AD06D00CB0F6D085B
:10229000DB071D430B4620462946FEF777F802462A
:1022A000104670BD0120FFF7B5FFFFF79CFF70BD22
:1022B0000000F07F10B5044601E0FFF751FF2078E1
:1022C000641C03490028F8D10A20FFF749FF10BD1C
:1022D000C000002000093D0000127A000024F40034
:1022E0004086510100366E01000000000000000031
:1022F00000000000000000000000000000000000DE
:1023000000000000000000000100000002000000CA
:1023100003000000040000000600000007000000A9
:10232000080000000900000000000000000000009C
:10233000000000000000000001000000020000009A
:10234000030000000400000000093D0000127A00B4
:102350000024F4004086510100366E0100093D0062
:1023600000093D0000093D0088230008000000200E
:10237000E0000000F621000868240008E0000020CA
:1023800028050000062200080000000000000000F0
:10239000000000000000000000000000000000003D
:1023A000000000000000000000000000000000002D
:1023B000000000000000000000000000000000001D
:1023C000000000000000000000000000000000000D
:1023D00000000000000000000000000000000000FD
:1023E00000000000000000000000000000000000ED
:1023F00000000000000000000000000000000000DD
:1024000000000000000000000000000000000000CC
:1024100000000000000000000000000000000000BC
:1024200000000000000000000000000000000000AC
:10243000000000000000000000000000000000009C
:10244000000000000000000000000000000000008C
:10245000000034430000003F0000003F00127A00FB
:0824600001000000040000006F
:04000005080000D51A
:00000001FF
