:020000040800F2
:10000000780F0020D50000081D1100081B11000802
:1000100000000000000000000000000000000000E0
:10002000000000000000000000000000491300086C
:1000300000000000000000001F1100086913000804
:10004000E7000008E7000008E7000008E7000008F4
:10005000E7000008E7000008E7000008E7000008E4
:1000600000000000E7000008E700000800000000B2
:10007000E7000008E7000008E700000800000000B3
:10008000E7000008E700000800000000E7000008A3
:1000900000000000E7000008E7000008E700000893
:1000A00000000000E7000008E70000084115000814
:1000B000E700000800000000E70000080000000062
:1000C0000348854600F03CF80048004765010008F9
:1000D000780F00200448804704480047FEE7FEE709
:1000E000FEE7FEE7FEE7FEE771130008C100000827
:1000F00030B50B46014600202022012409E00D46C0
:10010000D5409D4205D31D469540491B2546954047
:1001100040191546521E002DF1DC30BD03460B433D
:100120009B0703D009E008C9121F08C0042AFAD2AD
:1001300003E00B780370401C491C521EF9D2704733
:10014000064C0125064E05E0E36807CC2B430C3C2A
:1001500098471034B442F7D3FFF7B6FFAC1B000842
:10016000CC1B000880B5002007490122D306C358E4
:100170000B50001DC028F8D150070449086001F059
:10018000A7FA002080BDC0460000002008ED00E076
:10019000FEE7000070B52121415C02290FD1026801
:1001A00011680E2399431160136801218B4313607A
:1001B0000E4B1C461834A24205D00C0204E0042168
:1001C000816301240FE01024054620351E1DB24234
:1001D0000A4600D022461A6000242C706970416BD8
:1001E000002900D08847204670BDC0460400024068
:1001F000F0B58BB00C68002C00D1A1E0514A01236E
:10020000019090420393184600D002200522120765
:100210000025019B93421A460995009500D0009055
:1002200009980A900546039E0591701E039F089049
:1002300087403C4076D00696079504944B68102082
:100240001843122810D10C461C20099908400F2190
:100250008140089BDD08AD0055192E6A8E43216947
:1002600081403143296263680325184628400A9C6F
:10027000A0400295A5401668AE4306431660E843C9
:10028000122B12D801259D4031490D420DD09568A1
:1002900005400599CE68A6402E4396601D09089931
:1002A0008D405668BE432E435660D568054005997B
:1002B0008868A0402843D060D800049C079D069E13
:1002C00030D5182028400F218140089A029B9A437C
:1002D0001D4FBD182E6E8E43009A82403243059901
:1002E0002A661A4A10684B68DD0301D5204300E0F6
:1002F000A043069E106050689D0301D5204300E096
:10030000A04350603868DD0201D5204300E0A043DF
:10031000079D386078689A0201D5204300E0A04329
:10032000019A78600C682046F040099B1B1D0993D8
:100330000A9B9B1C0A930835761C002800D074E7A2
:100340000BB0F0BD000400500018024080180240BD
:10035000060006001C4800687047C046B0B500287B
:1003600017D0044600680E4901600E4901606168BB
:100370004160A1688160FFF7EDFF05462068C16814
:10038000002908D0FFF7E6FF401B3028F6D90320EC
:10039000B0BD0120B0BD074901600020B0BDC0461E
:1003A000CCCC0000555500000068024901600020D7
:1003B0007047C046AAAA00001B48006802490A68A4
:1003C000101808607047C0467409002010B500245A
:1003D000204600F009F8002801D0012401E000F0D7
:1003E00025F8204610BD0000B0B505460E4801684E
:1003F0000124002916D07D20C000FFF779FE0146B8
:100400008F480068FFF774FE00F0FCFC032D09D84C
:10041000002807D10024E0432946224600F028F8AE
:100420007F4805602046B0BD0801002082B0094821
:1004300041680122114341604168114001910199D5
:10044000110702680A4302600068084000900098A3
:1004500002B070473C100240002805D41F2108401C
:1004600001218140014801607047C04600E100E081
:10047000002805D40322034693430C4A9A1806E049
:100480000F220240083A03239A43074BD2188007F1
:10049000C00E8901C9B28140FF2383401068984390
:1004A000084310607047C0461CED00E000E400E027
:1004B000F0B583B000284CD00D4602905548006836
:1004C000012101910840A84214D25249086801262E
:1004D000B04328430860504CFFF73CFF07464D48A7
:1004E00000683040A84205D0FFF734FFC01BA0428F
:1004F000F5D98BE0029C20688107524B0DD541074E
:1005000004D5072109031A680A431A600F2109025A
:100510001A688A43A16811431960C0071BD13D487E
:10052000006801273840A8422BD93A490868B843E7
:1005300028430860384CFFF70DFF06463548006831
:100540003840A8421DD0FFF705FF801BA042F5D917
:100550005CE001205BE06668042E3BD8B10001A29C
:1005600051588F4679050008C1050008CB050008E1
:10057000D5050008D9050008194608390968490554
:100580002CE0029A1078400707D5072000032D4B76
:1005900019688143D0680843186000F057F829496A
:1005A000096889093C220A401C4989581F220A40CF
:1005B000D040234908601A480068FFF715FF26E07D
:1005C000194608390968890308E019460839096895
:1005D000890103E0996D00E0596D8907019816D5EE
:1005E000196807229143314319600B4FFFF7B2FEA0
:1005F000064614480068382101406068C000814206
:100600008DD0FFF7A7FE801BB842F2D9032003B0BC
:10061000F0BDC04600200240881300002C1B0008DB
:100620000C0100200648006806490968890A1C2256
:100630000A40054989581F220A40D0407047C046E9
:10064000C4000020081002406C1B00081E4881688E
:100650008906490F06D0826838210A40082A0FD13E
:100660001A487047016840680004400F042800D908
:1006700000208000174A10588904490FC84070476D
:1006800082680A40102A0DD1C168C90711D140689B
:100690000004400F042800D9002080000D490858AC
:1006A0004000704782680A40202A04D10120C0031C
:1006B00070470748704780680840182801D000201C
:1006C00070477D20000270470010024000127A003F
:1006D0000024F400181B0008F0B587B0054601207F
:1006E000002D2BD004902878C007FE4F059527D108
:1006F0002878800750D4059800780007F94A7AD402
:10070000059B1878400700D58BE0586A002813D065
:10071000F44B996838220A40102A00D0C5E001281D
:10072000049D00D1FEE0EF48C068012528400599EE
:10073000896A884200D0F5E00025F3E00546F1E043
:10074000B868382202401146103948424841F968D9
:10075000082A5ED001405CD16C68002C00D1C6E054
:10076000A86800286AD039690C2291430143396195
:10077000012211048C4208D0386805231B049C42D6
:1007800000D0B5E092041043386038680843386000
:10079000FFF7E0FD0646B8E0EA498868C968012528
:1007A00029403827074010207840411848424841E6
:1007B000AC02002F44D0002842D1E24E3068059AA6
:1007C0005169002900D1CFE00721C902884391690E
:1007D000014331602802316801433160FFF7BAFDFF
:1007E00005463068204200D0D0E0FFF7B3FD401B43
:1007F0000228F6D995E090683821014018293CD1AB
:10080000106E800700D47BE70598006A002815D099
:1008100076E73868800300D46AE7686800280DD05E
:1008200066E7906838210140202955D1D06D8007B6
:1008300000D46AE7D868002800D066E7049D71E01C
:10084000C04800682042059B02D05869002869D042
:10085000BD48401CBB4A51680140D86908435060FC
:10086000FFF778FD0646B748006820425DD1FFF7E4
:1008700071FD801B0228F6D953E0106E0599096AB4
:10088000002900D19DE0012108431066FFF762FDB9
:100890000646AC4A106E800700D531E7FFF75AFDD7
:1008A000801B03250228F4D93CE0012421061A68A4
:1008B0008A431A606706022871D1FFF74BFD06468E
:1008C000A0480068384200D1C9E0FFF743FD801B13
:1008D00003250228F4D925E001231907D06BC000B5
:1008E0000191039300D48CE00020029091E03868DD
:1008F0000125290488433860A80439688143396098
:10090000FFF728FD0646002C6DD001204404059D0C
:100910003868204200D0EBE6FFF71CFD801B6428FE
:10092000F6D90325284607B0F0BD002F15D10720C2
:10093000C002844C21688143059880690843206087
:10094000FFF784FEA16889093C220A407F49895843
:100950001F220A40D0407E4908607E480068FFF7A9
:1009600043FD0028DED1C6E6290288433060FFF748
:10097000F1FC064673480068204200D1BBE6FFF751
:10098000E9FC801B03250228F4D9CBE76E48401C04
:10099000716801400598C06908437060ABE6D8688B
:1009A000A043D860FFF7D6FC04466648006838428A
:1009B00000D1C1E6FFF7CEFC001B03250228F4D9C5
:1009C000B0E7012188431066FFF7C4FC06465D4A84
:1009D000106E800700D493E6FFF7BCFC801B032554
:1009E0000228F4D99EE76C04564800682042059D11
:1009F00000D17DE6FFF7AEFC801B03256428F3D908
:100A000090E7D06B0843D063D06B084006900698FF
:100A10000293514F3868C0050BD50598C5684F4CF7
:100A2000002D18D000698103890F43D0454B039EE8
:100A300043E003980402386820433860FFF78AFCDB
:100A4000064638682042E8D1FFF784FC801B032566
:100A50000228F6D966E73B4BD86D039E44E0059823
:100A6000806A01286BD000280BD136494968C90A31
:100A70001C220A403A4989583A4A9142254600D2F6
:100A800050E7304BD968012291430143D9601006E9
:100A9000196801431960FFF75DFC044629480068A6
:100AA000384200D048E6FFF755FC001B032502281A
:100AB000F4D937E7039E7004224B032109041A6915
:100AC0008A4302431A61012D05D0D86D052D0BD143
:100AD00004210843D865D86D3043D865FFF73AFC48
:100AE00006460CE000100240B043D865D86D0421E2
:100AF0008843D865FFF72EFC0646002D11D011491A
:100B0000C86D800711D4FFF725FC801B0325A04288
:100B1000F5D907E7FFF71EFC801B0325A04200D98B
:100B200000E70849C86D8007F4D402980028059BA7
:100B300000D1EAE5C86B019A9043C863E5E5254614
:100B4000F0E6C04600100240FFFFFEFF2C1B00082D
:100B5000C40000200C010020007000408813000039
:100B60008C1B00080024F400B0B5002811D0044606
:100B7000054648350220687020680168402291438C
:100B80000160204600F046F80020E064287068709C
:100B9000B0BD0120B0BD0000F0B581B0002835D057
:100BA0000446054648356878002804D1002028709E
:100BB000204600F031F80220687021680868402261
:100BC0009043086001225002A36918406668A76834
:100BD000374326693E43676937430743E069384333
:100BE000266A06430E60E668854F0020BE4217461F
:100BF00000D307463F0337431B0C04261E403E43E9
:100C0000636A33434B60E0646A7000E0012001B026
:100C1000F0BDC0467047000010B586B000681B49A3
:100C2000884231D11A490A68022002430A600A68E0
:100C300002400192019A0B68012213430B600B687A
:100C400013400193019BCB681343CB60CB681340E7
:100C50000193019B1303CC681C43CC60CC681C40FF
:100C60000194019B4B6813434B604968114001910B
:100C700001990021059104900290802001900520A7
:100C8000000701A9FFF7B4FA06B010BD003001401B
:100C900034100240F0B589B004464820205C012899
:100CA00001D10220A9E0154607910693274648374F
:100CB00001263E70FFF74EFB05907878012860D141
:100CC00007990029304600D194E0002D304600D12C
:100CD00090E0049620680268402303939A430260E0
:100CE0000A460321019179700021E164E585A5851B
:100CF000A262A1862163A163E1630291E1860122E0
:100D0000D303A168994203D1910302680A430260A8
:100D100001684906069E03D40168039A11430160E5
:100D200061684A424A416B1E594259411143E26887
:100D3000334B9A4227D30029059D07D0079A118883
:100D4000C160911CA162E18D491EE185E18D002900
:100D500038D08168890707D4FFF7FCFA711C0BD0E3
:100D6000401BB04208D328E0A16A0A88C260881CF0
:100D7000A062E08D401EE085E08D002822D0206832
:100D8000E7E7022036E00029059D08D00799097899
:100D90000173A06A401CA062E08D401EE085E08DDA
:100DA00000280FD020688168890709D4FFF7D2FA9C
:100DB000711CF4D0401BB042F1D3049E019819E09D
:100DC000A16AE4E7204631462A4600F0E3F900280C
:100DD00001D02020E064A0680028049E07D102987A
:100DE00008902068C1680891806808900898E06CB5
:100DF000411E8841002139707E7009B0F0BDC046A7
:100E000001070000401E010E01D001207047074974
:100E1000074A5060074803680B40032189075918A7
:100E2000016000209060072111607047FFFFFF0004
:100E300010E000E020ED00E070470000F0B583B066
:100E4000044600680268C16820252F2616404369C1
:100E5000202E07D10E462E4004D0204600F0A8FADE
:100E600003B0F0BD0195264645361507029559D0C9
:100E700001252B4000952D022F4620370F40DF190A
:100E800050D0D70705D00D4003D0A56C009F3D433F
:100E9000A564550705D5002B03D0A56C02272F4369
:100EA000A764950705D5002B03D0A56C04272F4315
:100EB000A764029D002D05D5002B03D0A36C082547
:100EC0001D43A564A36C002BCAD01140890603D52D
:100ED000204600F06DFA2068426940210A40A36C68
:100EE00008251D40AA1841D009225201C368934326
:100EF000C3604269009B9A434261019A72704269E1
:100F000052062FD542698A434261206C002829D0BD
:100F100024494163FFF73EF90028A1D0206C416BC2
:100F200088479DE711400A060BD4490698D5C16849
:100F300040229143C16001983070204600F0ECF8E7
:100F40008EE7317821298BD101210903A2688A42D9
:100F500002D1216900290FD0E16A0A784260491C58
:100F6000E16210E02046FFF767FF79E72046FFF7D0
:100F700063FF0020A06473E7E16A8A1CE2620988CB
:100F8000644A0A404260618E491E6186090400D0AD
:100F900066E7C16880229143C160C16840220A436C
:100FA000C2605DE7A1130008F0B581B000283BD016
:100FB0000446054644356878002804D1002028708E
:100FC000204600F034F82420687001277E03206852
:100FD000C168B143C160204600F020FA2021605C66
:100FE0004006206810D53A03436993430096666A29
:100FF000334343619642009E06D103225203436964
:101000009343A26A1A434261FA020369934303615C
:10101000426908239A434261C2683243C260002099
:10102000A0646970A97000E0012001B0F0BD7047B4
:1010300070470000F0B585B00E4605464520285C97
:101040000221202831D10120002E2FD01746002A5E
:101050002CD001221403A868A04204D128690028DA
:1010600001D1F00753D102942C4644342078012852
:1010700008461BD0039321460024AC640A7021204B
:1010800001914870FFF766F904906F862F86A86873
:10109000029988420CD1286900283446039B00D06D
:1010A0000024002805D1064603E0084605B0F0BD3F
:1010B000039B688E00281BD0D74F80212846049AB6
:1010C00000F00CFA00281AD1002E04D030782968DC
:1010D0004860761C05E02088384029684860A41CD8
:1010E0000026039B688E401E6886688E0028E4D127
:1010F00040212846049A00F0F1F9002801D003208D
:10110000D4E70020019A107020215170CEE71046DC
:10111000CCE7C046FF0100007047FEE7704770470C
:1011200010B582B018480021184A016207231B023B
:101130004124A40014C0FC34016043608160C1609C
:10114000046141610838FFF70FFD002801D0FFF767
:101150001FF80D48FFF720FD002801D0FFF718F811
:101160000B484168012211434160416811400191DF
:101170000199110702680A43026000680840009064
:10118000009802B010BDC046D401002000300140DC
:101190003C100240F0B581B016460F4605460324C8
:1011A000E1023A46334600F01BF800280FD12846EA
:1011B0003946324600F078F8002808D10320410271
:1011C00028463A46334600F00BF8002806D0E86C73
:1011D00020210143E964204601B0F0BD0024FAE774
:1011E000F0B589B01C4615460E46029007A80027A8
:1011F0000770FFF7AFF8201A06954419FFF7AAF811
:10120000029B04904F48006823214143080D059438
:101210006043089019688868304224D018464830E6
:10122000019003910846032461028E4204D1039980
:10123000097B07AA117007990699491C10D01D4611
:10124000FFF788F80499401A059988420DD208984A
:101250000899491E089100282B4600D1059018686E
:1012600081683142DFD13C461AE028684168E022BB
:1012700091434160412189006A688A420BD1A96883
:101280000122D303994202D09202914203D1016814
:1012900040229143016000200199087001204870AC
:1012A000204609B0F0BDC046F0B583B016460D46E5
:1012B0000446FFF74FF8301A4719FFF74BF8064678
:1012C000204800684001000D784302902068816842
:1012D00000220192090614D5214648310091691C6B
:1012E0000CD0FFF737F8801BB8420CD20298029955
:1012F000491E0291002800D107462068816809062E
:10130000EDD401981BE020684168E02291434160E0
:101310004121890062688A420BD1A1680122D3036E
:10132000994202D09202914203D101684022914336
:10133000016000200099087001204870032003B06C
:10134000F0BDC046C40000207047000003224243A5
:101350000878044B985498184A78427089788170BC
:101360007047C0461C01002080B5FFF725F880BDFE
:1013700007480168074A0A400749096811430122E2
:1013800053030B430360D006044908607047C0460E
:10139000041002400000FFFF040FFF1F08ED00E0F3
:1013A00080B5406A002141874186FFF745FD80BD39
:1013B00070B54621415C22291BD101210A038368B3
:1013C000934202D10269002A06D0426B531C436348
:1013D00003685B68137007E0426B931C4363036808
:1013E0005B680D4C1C401480428F521E42871204D1
:1013F00000D070BD024646320368DC682025AC434D
:10140000DC600C02DE68A643DE605C698C435C61D4
:101410001570FFF70DFE70BDFF010000F0B581B043
:10142000044601214A03006803699343E2681A43B2
:1014300002612269C368284D1D40A3681343626995
:101440001A432A43C260CE024169B143E769394376
:1014500041610321090242698A43A1691143416143
:10146000FFF7E0F80146192048436321CD43616846
:10147000B74215D14900FEF73BFE064664273946C0
:10148000FEF736FE00904543A819C00032303946B9
:10149000FEF72EFE0721014040001F22120112E03C
:1014A0008900FEF725FE064664273946FEF720FE32
:1014B00000904543A819000132303946FEF718FE66
:1014C0000F210140F0220240009800011018014352
:1014D0002068816001B0F0BDF3E9FFFFF0B583B093
:1014E00016460F4604460068016839400022029201
:1014F000B94211D01D46214644310191691C07D0E3
:10150000002D0BD0FEF726FF811B2068A94205D8CD
:1015100001683940B942F1D102980FE00D2149012B
:10152000C2688A43C260416901229143416120201F
:10153000019A5070002111709070032003B0F0BD2B
:1015400080B5FA4800680168890613D540680B49E0
:1015500008700B4802880978F14B9954511C01809E
:10156000FF22323289B2914201D300210180054825
:1015700001210170ED48FFF761FC80BD7002002081
:1015800072020020D3010020F0B587B00127B80314
:10159000DD49CA680243CA60CA68024002920298E2
:1015A0000868384308600868384002900298069737
:1015B00003200190059004970224039404200290D4
:1015C0000520050702AE28463146FEF711FE0697B4
:1015D000019805900497039408200290284631460C
:1015E000FEF706FED14E0025E12040020D490C22F7
:1015F00031607060B560F56035617261B56130462B
:10160000FFF7D2FC3068C16820220A43C2601B2663
:10161000304601992A46FEF72BFF3046FEF71CFFA5
:1016200007B0F0BD00380140F0B581B000901E4D0C
:1016300000260320704300990A18531C08277F1EB8
:101640001C78FC403F200721E40701D0CC4300E098
:10165000C4432C706D1C002FF1D108235B1E14783D
:10166000DC40E40701D0CC4300E0C4432C706D1C87
:10167000002BF3D1921C08235B1E1478DC40E40796
:1016800001D0CC4300E0C4432C706D1C002BF3D17F
:10169000B720C20005480449054BFFF7FBFA761C4A
:1016A0003D2EC6D101B0F0BD74020020D40100204F
:1016B000FFFF000080B582B001907D20C3009B48F1
:1016C00001A90122FFF7B6FC019802B080BDC04617
:1016D00094B0FEF77BFE00240F940A200990119429
:1016E0000C200B900A9413940126129670040D900E
:1016F0000C948348006883490140B0030818109097
:1017000035020E9509A8FEF7E7FF089407940294A6
:1017100006940720059005A83146FEF7C9FE7A4CCD
:1017200060682843606060682840354604900498EB
:101730002068022108432060206808400490049833
:1017400020683043206020683040049004983003C3
:10175000E1680143E160E1680140049104983007C9
:10176000A1680143A160A168014004910498FFF7BA
:101770000BFFFFF7D5FC65A000F006F97D20C20045
:101780006448032364490160039343608260E16A13
:101790003143E162FEF7E2FD604C614E624F01951C
:1017A000029921800846725CEA2A15D17218507895
:1017B0005C49085C039941437918921C0023D45C6E
:1017C000CC543B2800D1FC545B1C032BF7D1574869
:1017D000FFF734FB514C208881B2725CEB2A08D1B0
:1017E00089194A78FF2A04D18978BE2901D1504944
:1017F0000D70401C208081B2FF2232329142D2D340
:10180000002121804B488288438800887C5C001935
:101810007C18A578521964781B19C91CB729F5D111
:10182000444EB2807380308000253C490D80424C8C
:1018300080B23D21FEF75CFC70534049495B401A81
:10184000C117401848402070042D04D070194088FA
:10185000641CAD1CECE7314C039921803088728800
:101860001018B2888018FEF743FCF8210140C72900
:1018700005D83846FFF7D8FE019D294E1EE02E4BB5
:1018800019785A78104608439B7818431028019D10
:10189000234E13D32AA000F077F826480188428807
:1018A00083882DA000F070F83846FFF7BDFE0622B1
:1018B00022482049FEF732FC039820801548FEF7A5
:1018C00073FD002800D16BE72948057029A000F0BE
:1018D0005BF8002020802546284C80B22146FFF787
:1018E00035FD2888401C288081B23D29F5D3BFF3FF
:1018F0004F8F234823490160BFF34F8F00BFFDE79F
:10190000080FFF1FFF1F00003410024052455345CF
:101910005421000010010020003000402C0800205D
:101920003F080020C80000201C01002024020020E5
:1019300031080020320800207009002038080020FB
:101940007472616E5F436F756E743A2564202C2546
:10195000642C2025640000007267625F72616E670C
:10196000653A2564202C25642C20256400000000A5
:101970003E08002072657365742100002E08002067
:101980000CED00E00400FA050FB410B503A9044BF8
:10199000044A029800F018F810BC08BC04B01847BC
:1019A000B5160008C000002002E008C8121F08C1D8
:1019B000002AFAD170477047002001E001C1121FD0
:1019C000002AFBD170470000FFB58DB0044600250A
:1019D00006E025280AD0109A0F999047641C6D1CC8
:1019E00020780028F5D1284611B0F0BD002701214C
:1019F000484A009700E00743641C23780846203BD0
:101A000098401042F7D120782E2817D104200743A0
:101A10006078641C2A280CD10E98641C02C80091BE
:101A20000E900BE000990A22514330394018641C93
:101A300000902078014630390929F3D92078002810
:101A4000D1D0642808D0692806D075281ED0109AF5
:101A50000F9990476D1C5BE00A200E99019001C917
:101A60000E91002802DA40422D2102E0390504D50A
:101A70002B216A461172012103E0F90704D02021CD
:101A8000F7E70BAE0B910DE00021FAE70A200E9963
:101A9000019001C90E91F7E70199FEF729FB30315A
:101AA000761E31700028F7D103A8801B20300190EA
:101AB000780701D5009801E0012000900199884243
:101AC00001DD401A00E000200027009006E002A897
:101AD000109AC05D0F9990476D1C7F1C0B98874230
:101AE000F5DB04E0109A30200F9990476D1C0099A7
:101AF000481E00900029F5DC05E03078109A761C2D
:101B00000F9990476D1C0199481E01900029F4DC43
:101B1000641C65E70928010000093D0000127A00F5
:101B20000024F4004086510100366E0100000000E0
:101B300000000000000000000000000000000000A5
:101B40000000000000000000000000000100000094
:101B50000200000003000000040000000600000076
:101B6000070000000800000009000000000000005D
:101B70000000000000000000000000000100000064
:101B800002000000030000000400000000093D0006
:101B900000127A000024F4004086510100366E01E4
:101BA00000093D0000093D0000093D00CC1B000874
:101BB0000000002010010000A8190008DC1C00082B
:101BC00010010020680E0000B81900080000000095
:101BD0000000000000000000000000000000000005
:101BE00000000000000000000000000000000000F5
:101BF00000000000000000000000000000000000E5
:101C000000000000000000000000000000000000D4
:101C100000000000000000000000000000000000C4
:101C200000000000000000000000000000000000B4
:101C300000000000000000000000000000000000A4
:101C40000000000000000000000000000000000094
:101C50000000000000000000000000000000000084
:101C60000000000000000000000000000000000074
:101C70000000000000000000000000000000000064
:101C80000000000000000000000000000000000054
:101C900000127A001E1D1C191613100D0A09201FB0
:101CA0001A1714110E0C070822211B1815120F0BFE
:101CB000050624232A2D3033363903042625292C02
:101CC0002F323538020127282B2E3134373A3B008A
:0C1CD00000000000010000000400000003
:04000005080000D51A
:00000001FF
