:020000040800F2
:10000000A80F0020D500000805120008CB11000839
:1000100000000000000000000000000000000000E0
:100020000000000000000000000000003114000883
:100030000000000000000000071200083314000850
:10004000E7000008E7000008E7000008E7000008F4
:10005000E7000008E7000008E7000008E7000008E4
:1000600000000000E7000008E700000800000000B2
:10007000E7000008E7000008E700000800000000B3
:10008000E7000008E700000800000000E7000008A3
:1000900000000000E7000008E7000008E700000893
:1000A00000000000E7000008E70000080D16000847
:1000B000E700000800000000E70000080000000062
:1000C0000348854600F06EF8004800470502000826
:1000D000A80F00200448804704480047FEE7FEE7D9
:1000E000FEE7FEE7FEE7FEE73D140008C10000085A
:1000F0000549064A08685043054A801808604008C8
:100100007047014908607047C00000206D4EC6412D
:100110003930000070B50446002903D000202022A9
:10012000012310E0002801D00020C043C046C04693
:100130000DE02546D5408D4205D30D469540641B04
:100140001D46954040191546521E002DF1DC2146F2
:1001500070BD000070B5002504462E46002911D060
:10016000002C01DA01254442002901DA0126494226
:100170002046FFF7CFFFB54200D04042002D00D00F
:10018000494270BD002C02DA0121C90702E0002CAF
:1001900000DD03490846C046C046214670BD000048
:1001A000FFFFFF7F064C0125064E05E0E36807CC04
:1001B0002B430C3C98471034B442F7D3FFF784FF2D
:1001C000B81B0008D81B000830B58C180278401CFA
:1001D00013071B0F01D10378401C120906D10278C6
:1001E000401C03E005780D70401C491C5B1EF9D1D2
:1001F00001E00B70491C521EFBD1A142E6D3002046
:1002000030BD000080B5002007490122D306C35845
:100210000B50001DC028F8D150070449086001F0B8
:10022000D9FA002080BDC0460000002008ED00E0A3
:10023000FEE7000070B52121415C02290FD1026860
:1002400011680E2399431160136801218B431360D9
:100250000E4B1C461834A24205D00C0204E00421C7
:10026000816301240FE01024054620351E1DB24293
:100270000A4600D022461A6000242C706970416B37
:10028000002900D08847204670BDC04604000240C7
:10029000F0B58BB00C68002C00D1A1E0514A0123CD
:1002A000019090420393184600D0022005221207C5
:1002B0000025019B93421A460995009500D00090B5
:1002C00009980A900546039E0591701E039F0890A9
:1002D00087403C4076D00696079504944B681020E2
:1002E0001843122810D10C461C20099908400F21F0
:1002F0008140089BDD08AD0055192E6A8E432169A7
:1003000081403143296263680325184628400A9CCE
:10031000A0400295A5401668AE4306431660E84328
:10032000122B12D801259D4031490D420DD0956800
:1003300005400599CE68A6402E4396601D09089990
:100340008D405668BE432E435660D56805400599DA
:100350008868A0402843D060D800049C079D069E72
:1003600030D5182028400F218140089A029B9A43DB
:100370001D4FBD182E6E8E43009A82403243059960
:100380002A661A4A10684B68DD0301D5204300E055
:10039000A043069E106050689D0301D5204300E0F5
:1003A000A04350603868DD0201D5204300E0A0433F
:1003B000079D386078689A0201D5204300E0A04389
:1003C000019A78600C682046F040099B1B1D099338
:1003D0000A9B9B1C0A930835761C002800D074E702
:1003E0000BB0F0BD0004005000180240801802401D
:1003F0000600060000690840411E88417047000061
:100400001C4800687047C046B0B5002817D00446A5
:1004100000680E4901600E49016061684160A16891
:100420008160FFF7EDFF05462068C168002908D00C
:10043000FFF7E6FF401B3028F6D90320B0BD0120AE
:10044000B0BD074901600020B0BDC046CCCC000063
:100450005555000000680249016000207047C04601
:10046000AAAA00001B48006802490A681018086020
:100470007047C046240E002010B50024204600F02E
:1004800009F8002801D0012401E000F025F82046F9
:1004900010BD0000B0B505460E48016801240029D2
:1004A00016D07D20C000FFF735FE01468E4800685B
:1004B000FFF730FE00F0FEFC032D09D8002807D11D
:1004C0000024E0432946224600F028F87E480560D3
:1004D0002046B0BD0C02002082B0094841680122CC
:1004E000114341604168114001910199110702686F
:1004F0000A430260006808400090009802B070470C
:100500003C100240002805D41F21084001218140F1
:10051000014801607047C04600E100E0002805D4B2
:100520000322034693430C4A9A1806E00F22024026
:10053000083A03239A43074BD2188007C00E89015B
:10054000C9B28140FF23834010689843084310607C
:100550007047C0461CED00E000E400E0F0B583B059
:1005600000284AD00D4602905448006801210191AC
:100570000840A84214D2514908680126B0432843D4
:1005800008604F4CFFF73CFF07464C48006830407E
:10059000A84205D0FFF734FFC01BA042F5D989E07F
:1005A000029C20688107514B0DD5410704D50721D6
:1005B00009031A680A431A600F2109021A688A435C
:1005C000A16811431960C00719D13C480168012096
:1005D0000140A94229D9394A116881431160384C38
:1005E000FFF70EFF054635480068C0071DD0FFF72E
:1005F00007FF401BA042F6D95CE001205BE0666883
:10060000042E3BD8B10001A251588F4621060008A4
:1006100069060008730600087D06000881060008C8
:1006200019460839096849052CE0029A10784007F4
:1006300007D5072000032D4B19688143D068084374
:10064000186000F057F82949096889093C220A40D6
:100650001C4989581F220A40D040234908601A4883
:100660000068FFF717FF26E0194608390968890373
:1006700008E0194608390968890103E0996D00E02E
:10068000596D8907019816D519680722914331439E
:1006900019600B4FFFF7B4FE064614480068382176
:1006A00001406068C00081428FD0FFF7A9FE801B27
:1006B000B842F2D9032003B0F0BDC046002002408A
:1006C000881300002C1B0008100200200648006858
:1006D00006490968890A1C220A40054989581F22CF
:1006E0000A40D0407047C046C400002008100240B5
:1006F0006C1B00081E4881688906490F06D0826875
:1007000038210A40082A0FD11A487047016840680A
:100710000004400F042800D900208000174A105818
:100720008904490FC840704782680A40102A0DD1D9
:10073000C168C90711D140680004400F042800D9DE
:10074000002080000D4908584000704782680A4028
:10075000202A04D10120C0037047074870478068F1
:100760000840182801D0002070477D200002704703
:100770000010024000127A000024F400181B000848
:10078000F0B587B00125002800D1D7E10495059088
:100790000078C007F64C28D10598007880074ED421
:1007A000059800780007FC4A0CD590683821014074
:1007B000182900D09DE0106E800703D50598006AC7
:1007C000002874D0059B1878400700D4A1E19068F8
:1007D00038210140202900D0A3E0D06D800700D44B
:1007E00097E1D868002862D093E1A06838220240DF
:1007F0001146103948424841E168082A4ED001406C
:100800004CD105994868002800D1AFE089680029DB
:100810004DD022690C239A430A4322610521090421
:10082000884200D128E101221104884200D129E147
:1008300020688843206091042068884324E1ED49C2
:100840008868C9680125294038270740102078406A
:10085000411848424841AC02002F2AD0002828D134
:10086000E44E3068059F7969002900D1D8E007215E
:10087000C9028843B96901433160280231680143E4
:100880003160FFF7BDFD05463068204200D0D9E059
:10089000FFF7B6FD401B0228F6D928E02068800348
:1008A00000D479E705984068002800D074E7049DDB
:1008B00044E1D0480068204204D0059840690028EF
:1008C00000D13BE1CC48401CCA4A51680140059820
:1008D000C06908435060FFF793FD0646C5480068AD
:1008E00020427DD1FFF78CFD801B0228F6D903251D
:1008F00024E1106E0599096A002900D1AAE00121BE
:1009000008431066FFF77CFD0646BA4A106E800762
:1009100000D557E7FFF774FD801B03250228F4D9A3
:100920000CE1012003900107D06B0840029006D132
:10093000D06B0843D063D06B0840069006980191B5
:10094000B14F3868C0052AD40398040238682043A0
:100950003860FFF755FD0646386820421FD1FFF783
:100960004FFD801B03250228F6D9E7E00120010492
:1009700022688A432260810422688A4322604404F8
:10098000FFF73EFD06469B480068204200D103E782
:10099000FFF736FD801B03256428F4D9CEE00599C6
:1009A000C8689A4F002800D180E009698A03920F35
:1009B00001D1039949048F4C03252A0423699343E9
:1009C0000B432361052800D187E0012800D188E08E
:1009D000E06D03998843E065E06D0421884383E07E
:1009E000002F15D10720C002824C21688143059851
:1009F000806908432060FFF77DFEA16889093C22D9
:100A00000A407E4989581F220A40D0407C4908602C
:100A10007C480068FFF73EFD002800D08EE0BFE66E
:100A2000290288433060FFF7EBFC064671480068F6
:100A3000204200D1B4E6FFF7E3FC801B0325022827
:100A4000F4D97BE06C48401C71680140F8690843A8
:100A50007060A5E6012188431066FFF7D1FC0646C9
:100A6000644A106E800700D4ACE6FFF7C9FC801B17
:100A700003250228F4D961E00120810422680A4399
:100A80002260010420680843206001204404FFF72D
:100A9000B7FC064657480068204200D07CE6FFF7C6
:100AA000AFFC801B03256428F4D947E0514AD06D80
:100AB00003998843D065D06D04218843D065FFF742
:100AC0009FFC06464B4CE06D80071AD5FFF798FC5B
:100AD000801B0325B842F6D930E0E06D04210143C4
:100AE000E165E06D03990843E065FFF789FC064680
:100AF000E06D800705D4FFF783FC801BB842F7D96F
:100B00001CE002980028059B03D1E06B0199884303
:100B1000E063586A002810D0364B996838220A40A2
:100B2000102A0ED10128049D08D03248C068012542
:100B300028400599896A884200D10025284607B0D7
:100B4000F0BD012421061A688A431A60670602284C
:100B500010D1FFF755FC06462648006838421DD0E4
:100B6000FFF74EFC801B03250228F5D9E6E7C046B7
:100B700000100240D868A043D860FFF741FC04464B
:100B80001C4800683842D8D0FFF73AFC001B032508
:100B90000228F5D9D2E7C046001002400598806AC5
:100BA000012824D000280AD112494968C90A1C2208
:100BB0000A4017498958174A91422546BED30D4B22
:100BC000D968012291430143D96010061968014395
:100BD0001960FFF715FC0446064800683842ACD19E
:100BE000FFF70EFC001B03250228F5D9A6E72546D2
:100BF000A4E7C04600100240FFFFFEFF2C1B0008C8
:100C0000C400002010020020007000408813000083
:100C10008C1B00080024F400B0B5002811D0044655
:100C200005464835022068702068016840229143DB
:100C30000160204600F046F80020E06428706870EB
:100C4000B0BD0120B0BD0000F0B581B0002835D0A6
:100C50000446054648356878002804D100202870ED
:100C6000204600F031F802206870216808684022B0
:100C70009043086001225002A36918406668A76883
:100C8000374326693E43676937430743E069384382
:100C9000266A06430E60E668854F0020BE4217466E
:100CA00000D307463F0337431B0C04261E403E4338
:100CB000636A33434B60E0646A7000E0012001B076
:100CC000F0BDC0467047000010B586B000681B49F3
:100CD000884231D11A490A68022002430A600A6830
:100CE00002400192019A0B68012213430B600B68CA
:100CF00013400193019BCB681343CB60CB68134037
:100D00000193019B1303CC681C43CC60CC681C404E
:100D10000194019B4B6813434B604968114001915A
:100D200001990021059104900290802001900520F6
:100D3000000701A9FFF7ACFA06B010BD0030014072
:100D400034100240F0B589B004464820205C0128E8
:100D500001D10220A9E0154607910693274648379E
:100D600001263E70FFF74CFB05907878012860D192
:100D700007990029304600D194E0002D304600D17B
:100D800090E0049620680268402303939A4302602F
:100D90000A460321019179700021E164E585A5856A
:100DA000A262A1862163A163E1630291E18601222F
:100DB000D303A168994203D1910302680A430260F8
:100DC00001684906069E03D40168039A1143016035
:100DD00061684A424A416B1E594259411143E268D7
:100DE000334B9A4227D30029059D07D0079A1188D3
:100DF000C160911CA162E18D491EE185E18D002950
:100E000038D08168890707D4FFF7FAFA711C0BD034
:100E1000401BB04208D328E0A16A0A88C260881C3F
:100E2000A062E08D401EE085E08D002822D0206881
:100E3000E7E7022036E00029059D08D007990978E8
:100E40000173A06A401CA062E08D401EE085E08D29
:100E500000280FD020688168890709D4FFF7D0FAED
:100E6000711CF4D0401BB042F1D3049E019819E0EC
:100E7000A16AE4E7204631462A4600F0FFF900283F
:100E800001D02020E064A0680028049E07D10298C9
:100E900008902068C1680891806808900898E06C04
:100EA000411E8841002139707E7009B0F0BDC046F6
:100EB00001070000401E010E01D0012070470749C4
:100EC000074A5060074803680B40032189075918F7
:100ED000016000209060072111607047FFFFFF0054
:100EE00010E000E020ED00E070470000F0B583B0B6
:100EF000044600680268C16820252F261640436911
:100F0000202E07D10E462E4004D0204600F0B6FA1F
:100F100003B0F0BD0195264645361507029559D018
:100F200001252B4000952D022F4620370F40DF1959
:100F300050D0D70705D00D4003D0A56C009F3D438E
:100F4000A564550705D5002B03D0A56C02272F43B8
:100F5000A764950705D5002B03D0A56C04272F4364
:100F6000A764029D002D05D5002B03D0A36C082596
:100F70001D43A564A36C002BCAD01140890603D57C
:100F8000204600F07BFA2068426940210A40A36CA9
:100F900008251D40AA1841D009225201C368934375
:100FA000C3604269009B9A434261019A7270426930
:100FB00052062FD542698A434261206C002829D00D
:100FC00024494163FFF736F90028A1D0206C416B1A
:100FD00088479DE711400A060BD4490698D5C16899
:100FE00040229143C16001983070204600F0ECF837
:100FF0008EE7317821298BD101210903A2688A4229
:1010000002D1216900290FD0E16A0A784260491CA7
:10101000E16210E02046FFF767FF79E72046FFF71F
:1010200063FF0020A06473E7E16A8A1CE26209881A
:10103000644A0A404260618E491E6186090400D0FC
:1010400066E7C16880229143C160C16840220A43BB
:10105000C2605DE76D140008F0B581B000283BD098
:101060000446054644356878002804D100202870DD
:10107000204600F034F82420687001277E032068A1
:10108000C168B143C160204600F02EFA2021605CA7
:101090004006206810D53A03436993430096666A78
:1010A000334343619642009E06D1032252034369B3
:1010B0009343A26A1A434261FA02036993430361AC
:1010C000426908239A434261C2683243C2600020E9
:1010D000A0646970A97000E0012001B0F0BD704704
:1010E00070470000F0B585B00E4605464520285CE7
:1010F0000221202831D10120002E2FD01746002AAE
:101100002CD001221403A868A04204D12869002829
:1011100001D1F00753D102942C46443420780128A1
:1011200008461BD0039321460024AC640A7021209A
:1011300001914870FFF764F904906F862F86A868C4
:10114000029988420CD1286900283446039B00D0BC
:101150000024002805D1064603E0084605B0F0BD8E
:10116000039B688E00281BD0DE4F80212846049AFE
:1011700000F01AFA00281AD1002E04D0307829681D
:101180004860761C05E02088384029684860A41C27
:101190000026039B688E401E6886688E0028E4D176
:1011A00040212846049A00F0FFF9002801D00320CE
:1011B000D4E70020019A107020215170CEE710462C
:1011C000CCE7C046FF0100007047FEE710B586B0CF
:1011D00002240494039400200290402001900748C8
:1011E00001A9FFF755F8064801682143016000682E
:1011F00020400090009806B010BDC046000400508A
:10120000341002407047704710B582B01848002172
:10121000184A016207231B024124A40014C0FC34B5
:10122000016043608160C160046141610838FFF77B
:10123000F3FC002801D0FEF7FBFF0D48FFF704FD8B
:10124000002801D0FEF7F4FF0B484168012211434A
:1012500041604168114001910199110702680A43F8
:101260000260006808400090009802B010BDC046BF
:1012700024020020003001403C100240F0B581B053
:1012800016460F4605460324E1023A46334600F06F
:101290001BF800280FD128463946324600F078F86E
:1012A000002808D10320410228463A46334600F080
:1012B0000BF8002806D0E86C20210143E9642046A1
:1012C00001B0F0BD0024FAE7F0B589B01C46154620
:1012D0000E46029007A800270770FFF791F8201A22
:1012E00006954419FFF78CF8029B04904F4800685C
:1012F00023214143080D05946043089019688868CC
:10130000304224D018464830019003910846032407
:1013100061028E4204D10399097B07AA11700799D3
:101320000699491C10D01D46FFF76AF80499401A27
:10133000059988420DD208980899491E08910028FD
:101340002B4600D10590186881683142DFD13C46B8
:101350001AE028684168E0229143416041218900F8
:101360006A688A420BD1A9680122D303994202D04C
:101370009202914203D10168402291430160002012
:101380000199087001204870204609B0F0BDC046A0
:10139000F0B583B016460D460446FFF731F8301A13
:1013A0004719FFF72DF80646204800684001000D58
:1013B000784302902068816800220192090614D5C2
:1013C000214648310091691C0CD0FFF719F8801BA9
:1013D000B8420CD202980299491E0291002800D10D
:1013E0000746206881680906EDD401981BE0206853
:1013F0004168E022914341604121890062688A424C
:101400000BD1A1680122D303994202D092029142EA
:1014100003D10168402291430160002000990870C7
:1014200001204870032003B0F0BDC046C400002076
:10143000704780B5FFF716F880BD000007480168C7
:10144000074A0A40074909681143012253030B4325
:101450000360D006044908607047C046041002408B
:101460000000FFFF040FFF1F08ED00E080B5406A99
:10147000002141874186FFF737FD80BD70B54621C9
:10148000415C22291BD101210A038368934202D1C6
:101490000269002A06D0426B531C436303685B68F1
:1014A000137007E0426B931C436303685B680D4C49
:1014B0001C401480428F521E4287120400D070BD1F
:1014C000024646320368DC682025AC43DC600C022F
:1014D000DE68A643DE605C698C435C611570FFF7D3
:1014E000FFFD70BDFF010000F0B581B00446012191
:1014F0004A03006803699343E2681A430261226960
:10150000C368284D1D40A368134362691A432A43E8
:10151000C260CE024169B143E769394341610321A9
:10152000090242698A43A16911434161FFF7CEF87C
:101530000146192048436321CD436168B74215D164
:101540004900FEF7E7FD064664273946FEF7E2FD4F
:1015500000904543A819C00032303946FEF7DAFD45
:101560000721014040001F22120112E08900FEF70E
:10157000D1FD064664273946FEF7CCFD0090454371
:10158000A819000132303946FEF7C4FD0F21014091
:10159000F022024000980001101801432068816089
:1015A00001B0F0BDF3E9FFFFF0B583B016460F467A
:1015B000044600680168394000220292B94211D005
:1015C0001D46214644310191691C07D0002D0BD0E6
:1015D000FEF716FF811B2068A94205D80168394033
:1015E000B942F1D102980FE00D214901C2688A4346
:1015F000C26041690122914341612020019A5070EB
:10160000002111709070032003B0F0BD80B5F24846
:1016100000680168890612D5406812490870087888
:10162000452802D0087845280DD17D20C300EA481E
:101630000E490A22FFF756FD0B4800210180E648BB
:10164000FFF754FC80BD084802880978E14B9954A3
:10165000511C0180DE4A12780523534389B28B4224
:10166000EBD9ECE7C0020020C2020020AC1B00084E
:10167000F0B587B00127B8039549CA680243CA602C
:10168000CA680240029202980868384308600868F5
:101690003840029002980697032001900590049725
:1016A00002240394042002900520050702AE284678
:1016B0003146FEF7EDFD06970198059004970394D7
:1016C0000820029028463146FEF7E2FDC24E002572
:1016D000E12040020D490C2231607060B560F56078
:1016E00035617261B5613046FFF7B6FC3068C1689C
:1016F00020220A43C2601B26304601992A46FEF783
:101700000DFF3046FEF7FEFE07B0F0BD0038014089
:10171000F0B581B000901E4D002603207043009963
:101720000A18531C08277F1E1C78FC403F20072105
:10173000E40701D0CC4300E0C4432C706D1C002FA3
:10174000F1D108235B1E1478DC40E40701D0CC43C0
:1017500000E0C4432C706D1C002BF3D1921C0823B5
:101760005B1E1478DC40E40701D0CC4300E0C443A6
:101770002C706D1C002BF3D14B204201054804490D
:10178000054BFFF7DFFA761C642EC6D101B0F0BD21
:10179000C402002024020020FFFF0000B0B59C4AD4
:1017A000002313801C46A4B203256C43811D0B55F6
:1017B00014886C430C19637014886C430C19A37063
:1017C0001488641C1480A5B2642DECD30846FFF77E
:1017D0009FFFB0BD92B0FEF74FFE03200190FEF7D1
:1017E00059FE00260B960D960A2007900F960C20A6
:1017F000099008961196012510950A960696059669
:10180000049603963048006830490140E803081800
:101810000E902C020C9407A8FEF7B2FF06960596D0
:1018200004960720039003A82946FEF797FE284F49
:101830007868204378607868204002900298386881
:1018400002210843386038680840029002983868DE
:101850002843386038682840029002982803F968C5
:101860000143F960F9680140029102982807B968BC
:101870000143B960B968014002910298FFF7F8FE90
:10188000FFF7C2FCFFF7A2FC7D20C000114E1249F9
:10189000316001997160B060F86A2843F86230469F
:1018A000FEF7B2FD4A4C204600F0B4F83046FEF791
:1018B000D1FD0028F7D0BFF34F8F084808490160D9
:1018C000BFF34F8F00BFFDE7100FFF1FFF1F00008A
:1018D0003410024018020020003000400CED00E0FF
:1018E0000400FA05F0B581B0494A00261680037954
:1018F000C4788578B6B203277E43811D8D5516883E
:101900007E438E19747016887E438E19B3701688C4
:10191000761C1680B7B2642FECD30846FFF7F8FEAA
:1019200001B0F0BDF0B581B00090394900200880C9
:1019300027490978002944D0264E0246B35CEA2B99
:1019400025D134469219527803231E465643204D22
:10195000AE190227F51980B22018C05D2871881EC3
:10196000904206D15943009D6818C019E9190979B8
:101970004170042F05D07F1C154801782448008849
:10198000E8E71548FFF7B2FA21480088264681B2F9
:10199000725CEC2A0BD18A19937851780D467F3509
:1019A0009D4204D1D278CE2A01D1009A1170401CF8
:1019B000174908800649097805234B4382B29342B0
:1019C000BCD80098801DFFF7A3FE01B0F0BDC04653
:1019D000D80000202B0C002074020020B0B5044673
:1019E0004348012101706079002810D0084D002083
:1019F0002880FEF77DFBFF21FEF7ACFB288820182E
:101A000081702888401C288080B20328F1D3B0BDA3
:101A1000240C0020F0B581B004462C484021FEF78C
:101A2000E9FC01462A4D28702A4F3878002802D058
:101A3000FEF7E6FC2978284E3088012905D10028D8
:101A400003D1FEF7DDFC30802978002933D1010471
:101A500031D0FEF7D5FC01463088091A1F4A1180A3
:101A60000A46153A92B21E4B9A4203D82046FFF717
:101A7000B5FF1AE01B4A8A1892B21B4B9A420ED845
:101A80001B48022101706079401C6071C0B20328BC
:101A90000BD3002060712046FFF780FE05E089B27D
:101AA000124A914207D301203870002030800B4940
:101AB0000880287001E0000406D16079C0000D495B
:101AC000081841682046884701B0F0BD0004005066
:101AD000290C00202A0C0020200E0020260C0020BB
:101AE000D203000017FCFFFFCE070000B90B000077
:101AF000280C0020C800002002E008C8121F08C1FE
:101B0000002AFAD170477047002001E001C1121F7E
:101B1000002AFBD17047000000093D0000127A0046
:101B20000024F4004086510100366E0100000000E0
:101B300000000000000000000000000000000000A5
:101B40000000000000000000000000000100000094
:101B50000200000003000000040000000600000076
:101B6000070000000800000009000000000000005D
:101B70000000000000000000000000000100000064
:101B800002000000030000000400000000093D0006
:101B900000127A000024F4004086510100366E01E4
:101BA00000093D0000093D0000093D0042414E5240
:101BB00047425F4F4B0A0000D81B0008000000207E
:101BC00014020000C8010008F01B000818020020E1
:101BD000900D0000081B000801C663127A46251903
:101BE00000080106FFE518000840013642014204E2
:04000005080000D51A
:00000001FF
